{
  "contractName": "Token",
  "abi": [
    {
      "inputs": [],
      "stateMutability": "nonpayable",
      "type": "constructor"
    },
    {
      "inputs": [],
      "name": "decimals",
      "outputs": [
        {
          "internalType": "uint256",
          "name": "",
          "type": "uint256"
        }
      ],
      "stateMutability": "view",
      "type": "function"
    },
    {
      "inputs": [
        {
          "internalType": "address",
          "name": "",
          "type": "address"
        }
      ],
      "name": "getBalanace",
      "outputs": [
        {
          "internalType": "uint256",
          "name": "",
          "type": "uint256"
        }
      ],
      "stateMutability": "view",
      "type": "function"
    },
    {
      "inputs": [],
      "name": "name",
      "outputs": [
        {
          "internalType": "string",
          "name": "",
          "type": "string"
        }
      ],
      "stateMutability": "view",
      "type": "function"
    },
    {
      "inputs": [],
      "name": "symbol",
      "outputs": [
        {
          "internalType": "string",
          "name": "",
          "type": "string"
        }
      ],
      "stateMutability": "view",
      "type": "function"
    },
    {
      "inputs": [],
      "name": "totalSupply",
      "outputs": [
        {
          "internalType": "uint256",
          "name": "",
          "type": "uint256"
        }
      ],
      "stateMutability": "view",
      "type": "function"
    }
  ],
  "bytecode": "0x60806040526040518060400160405280600b81526020017f52616d616e20546f6b656e000000000000000000000000000000000000000000815250600090805190602001906200005192919062000126565b506040518060400160405280600581526020017f52414d414e000000000000000000000000000000000000000000000000000000815250600190805190602001906200009f92919062000126565b506012600255348015620000b257600080fd5b50600254600a620000c4919062000363565b620f4240620000d49190620003b4565b600381905550600354600460003373ffffffffffffffffffffffffffffffffffffffff1673ffffffffffffffffffffffffffffffffffffffff168152602001908152602001600020819055506200047a565b828054620001349062000444565b90600052602060002090601f016020900481019282620001585760008555620001a4565b82601f106200017357805160ff1916838001178555620001a4565b82800160010185558215620001a4579182015b82811115620001a357825182559160200191906001019062000186565b5b509050620001b39190620001b7565b5090565b5b80821115620001d2576000816000905550600101620001b8565b5090565b7f4e487b7100000000000000000000000000000000000000000000000000000000600052601160045260246000fd5b60008160011c9050919050565b6000808291508390505b600185111562000264578086048111156200023c576200023b620001d6565b5b60018516156200024c5780820291505b80810290506200025c8562000205565b94506200021c565b94509492505050565b6000826200027f576001905062000352565b816200028f576000905062000352565b8160018114620002a85760028114620002b357620002e9565b600191505062000352565b60ff841115620002c857620002c7620001d6565b5b8360020a915084821115620002e257620002e1620001d6565b5b5062000352565b5060208310610133831016604e8410600b8410161715620003235782820a9050838111156200031d576200031c620001d6565b5b62000352565b62000332848484600162000212565b925090508184048111156200034c576200034b620001d6565b5b81810290505b9392505050565b6000819050919050565b6000620003708262000359565b91506200037d8362000359565b9250620003ac7fffffffffffffffffffffffffffffffffffffffffffffffffffffffffffffffff84846200026d565b905092915050565b6000620003c18262000359565b9150620003ce8362000359565b9250817fffffffffffffffffffffffffffffffffffffffffffffffffffffffffffffffff04831182151516156200040a5762000409620001d6565b5b828202905092915050565b7f4e487b7100000000000000000000000000000000000000000000000000000000600052602260045260246000fd5b600060028204905060018216806200045d57607f821691505b6020821081141562000474576200047362000415565b5b50919050565b61045a806200048a6000396000f3fe608060405234801561001057600080fd5b50600436106100575760003560e01c806306fdde031461005c57806318160ddd1461007a578063313ce567146100985780638b94006f146100b657806395d89b41146100e6575b600080fd5b610064610104565b60405161007191906102dd565b60405180910390f35b610082610192565b60405161008f9190610318565b60405180910390f35b6100a0610198565b6040516100ad9190610318565b60405180910390f35b6100d060048036038101906100cb9190610396565b61019e565b6040516100dd9190610318565b60405180910390f35b6100ee6101b6565b6040516100fb91906102dd565b60405180910390f35b60008054610111906103f2565b80601f016020809104026020016040519081016040528092919081815260200182805461013d906103f2565b801561018a5780601f1061015f5761010080835404028352916020019161018a565b820191906000526020600020905b81548152906001019060200180831161016d57829003601f168201915b505050505081565b60035481565b60025481565b60046020528060005260406000206000915090505481565b600180546101c3906103f2565b80601f01602080910402602001604051908101604052809291908181526020018280546101ef906103f2565b801561023c5780601f106102115761010080835404028352916020019161023c565b820191906000526020600020905b81548152906001019060200180831161021f57829003601f168201915b505050505081565b600081519050919050565b600082825260208201905092915050565b60005b8381101561027e578082015181840152602081019050610263565b8381111561028d576000848401525b50505050565b6000601f19601f8301169050919050565b60006102af82610244565b6102b9818561024f565b93506102c9818560208601610260565b6102d281610293565b840191505092915050565b600060208201905081810360008301526102f781846102a4565b905092915050565b6000819050919050565b610312816102ff565b82525050565b600060208201905061032d6000830184610309565b92915050565b600080fd5b600073ffffffffffffffffffffffffffffffffffffffff82169050919050565b600061036382610338565b9050919050565b61037381610358565b811461037e57600080fd5b50565b6000813590506103908161036a565b92915050565b6000602082840312156103ac576103ab610333565b5b60006103ba84828501610381565b91505092915050565b7f4e487b7100000000000000000000000000000000000000000000000000000000600052602260045260246000fd5b6000600282049050600182168061040a57607f821691505b6020821081141561041e5761041d6103c3565b5b5091905056fea26469706673582212206a73a88b1df7bdaae7d920459e676242f66b139dc4c90a2f9bae6ea558f7f18d64736f6c634300080b0033",
  "immutableReferences": {},
  "source": "pragma solidity ^0.8.0;\r\n\r\ncontract Token {\r\n\tstring public name = \"Raman Token\";\r\n\tstring public symbol = \"RAMAN\";\r\n\tuint256 public decimals = 18;\r\n\tuint256 public totalSupply;\r\n\tmapping(address => uint256) public getBalanace;\r\n\r\n\tconstructor() public{\r\n\t\ttotalSupply = 1000000 * (10 ** decimals);\r\n\t\tgetBalanace[msg.sender] = totalSupply;\r\n\t}\r\n\r\n} \r\n\r\n",
  "sourcePath": "C:\\pr0\\blockchain-developer-bootcamp\\src\\contracts\\Token.sol",
  "compiler": {
    "name": "solc",
    "version": "0.8.11+commit.d7f03943.Emscripten.clang"
  },
  "schemaVersion": "3.4.4",
  "updatedAt": "2022-02-13T20:08:49.787Z",
  "devdoc": {
    "kind": "dev",
    "methods": {},
    "version": 1
  },
  "userdoc": {
    "kind": "user",
    "methods": {},
    "version": 1
  }
}